:100000000C949E000C94C6000C94C6000C94C60080
:100010000C9434070C94C6000C94C6000C94C600D3
:100020000C94C6000C94C6000C94C6000C94C60038
:100030000C94C6000C94C6000C94C6000C94C60028
:100040000C94EA060C94C6000C94B8060C94920624
:100050000C94C6000C94DD070C94C6000C94C600EA
:100060000C94C6000C94C60007634236B79BD8A711
:100070001A39685618AEBAAB558C1D3CB7CC5763CD
:10008000BD6DEDFD753EF6177231BF000000803F7B
:1000900008000000BE922449123EABAAAA2ABECD97
:1000A000CCCC4C3E00000080BEABAAAAAA3E000009
:1000B0000000BF000000803F000000000008417801
:1000C000D3BB4387D1133D190E3CC3BD4282AD2B38
:1000D0003E68EC8276BED98FE1A93E4C80EFFFBE30
:1000E00001C4FF7F3F000000000000000008000284
:1000F00001000003040700000000000000000000F1
:100100000000250028002B0000000000240027002C
:100110002A00040404040404040402020202020289
:1001200003030303030301020408102040800102BB
:1001300004081020010204081020FF0711241FBE2C
:10014000CFEFD8E0DEBFCDBF11E0A0E0B1E0ECEC36
:10015000FAE102C005900D92AC34B107D9F722E064
:10016000ACE4B1E001C01D92A432B207E1F710E0A7
:10017000CEE9D0E004C02197FE010E94590DCD398F
:10018000D107C9F70E944A080C94640D0C94000032
:1001900090E0FC01EA5DFE4F2491FC01EE5EFE4F13
:1001A0008491882399F090E0880F991FFC01E85F03
:1001B000FE4FA591B491FC01E250FF4F85919491BF
:1001C0008FB7F894EC91E22BEC938FBF0895FC016C
:1001D000538D448D252F30E0842F90E0821B930BAC
:1001E000541710F0CF96089501970895FC01918D52
:1001F000828D981761F0828DDF01A80FB11D5D9689
:100200008C91928D9F5F9F73928F90E008958FEFF6
:100210009FEF0895FC01918D828D981731F0828DAA
:10022000E80FF11D858D90E008958FEF9FEF089501
:10023000FC01918D228D892F90E0805C9F4F821B65
:1002400091098F7399270895FC01848DDF01A80F10
:10025000B11DA35ABF4F2C91848D90E001968F73EE
:100260009927848FA689B7892C93A089B1898C910D
:1002700080648C93938D848D981306C00288F389D3
:10028000E02D80818F7D80830895EF92FF920F9300
:100290001F93CF93DF93EC0181E0888F9B8D8C8D32
:1002A000981305C0E889F989808185FD24C0F62E60
:1002B0000B8D10E00F5F1F4F0F731127E02E8C8DF9
:1002C000E8120CC00FB607FCFACFE889F9898081E3
:1002D00085FFF5CFCE010E942401F1CF8B8DFE0169
:1002E000E80FF11DE35AFF4FF0820B8FEA89FB897B
:1002F0008081806207C0EE89FF896083E889F9897F
:1003000080818064808381E090E0DF91CF911F91B4
:100310000F91FF90EF900895CF93DF93EC01888DBC
:100320008823C9F0EA89FB89808185FD05C0A889F9
:10033000B9898C9186FD0FC00FB607FCF5CF80817F
:1003400085FFF2CFA889B9898C9185FFEDCFCE01C9
:100350000E942401E7CFDF91CF9108958FE691E0CD
:100360000E94180121E0892B09F420E0822F0895D2
:1003700080E090E0892B29F00E94AE0181110C945D
:1003800000000895E0915B01F0915C01828193810E
:100390008F31910564F423E030E030934F012093D6
:1003A0004E0121E030E030935101209350019C0137
:1003B0002F5131092837310550F410924F01109216
:1003C0004E0121E030E030935101209350019C0117
:1003D00027593109223D310550F421E030E03093B6
:1003E0004F0120934E0130935101209350019C0105
:1003F000295631402F3A310560F422E030E0309345
:100400004F0120934E0121E030E0309351012093C1
:1004100050019C0128513240213E310568F484E0AE
:1004200090E090934F0180934E0181E090E0909393
:100430005101809350010895893F924024F0109219
:100440005101109250010895DC01ED91FC91019051
:10045000F081E02D0994CF92DF92EF92FF920F93FB
:100460001F93CF93DF936C017A018B01C0E0D0E042
:10047000CE15DF0589F0D8016D918D01D601ED9182
:10048000FC910190F081E02DC6010995892B11F4B2
:100490007E0102C02196ECCFC701DF91CF911F9161
:1004A0000F91FF90EF90DF90CF90089590E0FC01C6
:1004B000E651FF4F3491FC01EA5DFE4F2491FC01AF
:1004C000EE5EFE4FE491EE2309F43BC0332339F195
:1004D000333091F038F43130A9F0323001F584B581
:1004E0008F7D12C0373091F03830A1F03430B9F43C
:1004F000809180008F7D03C0809180008F778093F2
:1005000080000DC084B58F7784BD09C08091B00094
:100510008F7703C08091B0008F7D8093B000F0E0B2
:10052000EE0FFF1FE250FF4FA591B4918FB7F894E3
:10053000EC91611103C020952E2301C02E2B2C932A
:100540008FBF0895CF93DF93EC018AE00E94C8002B
:10055000209711F460E004C0CF3FD10531F461E091
:100560008AE0DF91CF910C945602E4EFF0E0E49141
:10057000E330F9F048F4E130B9F0E230A1F584B5A8
:10058000806284BDC8BD34C0E730E9F0E83019F1BD
:10059000E43049F580918000806280938000D093A0
:1005A0008B00C0938A0024C084B5806884BDC7BD19
:1005B0001FC080918000806880938000D093890064
:1005C000C093880015C08091B00080688093B0000F
:1005D000C093B3000DC08091B00080628093B000E2
:1005E000C093B40005C0C038D1050CF0B8CFB2CF6D
:1005F000DF91CF910895CF93DF93EC0160E08E817E
:100600000E94560261E08E810E94560260E08E8157
:100610000E9456028BE891E00197F1F7DF91CF91AC
:100620000895CF92DF92EF92FF920F931F93CF9393
:10063000DF937C016C0187E0C80ED11CC0E0D0E0E4
:10064000062F10E0B8010C2E02C0759567950A942C
:10065000E2F76170F60181916F010E9456022196C6
:10066000C430D10579F7C701DF91CF911F910F9168
:10067000FF90EF90DF90CF900C94FB02CF92DF922F
:10068000EF92FF920F931F93CF93DF93EC01F62E1F
:10069000642F8C810E9456028D818F3F19F060E09B
:1006A0000E9456028F850F2D10E084FF25C06E0139
:1006B00087E0C80ED11CE12CF12CB8010E2C02C031
:1006C000759567950A94E2F76170F60181916F0163
:1006D0000E945602FFEFEF1AFF0A88E0E816F104C5
:1006E00061F7CE01DF91CF911F910F91FF90EF90B5
:1006F000DF90CF900C94FB02B80184E0759567956C
:100700008A95E1F7CE010E9411036F2DCE01DF9192
:10071000CF911F910F91FF90EF90DF90CF900C94AD
:10072000110341E00E943E0381E090E0089540E023
:100730000C943E03643008F063E090911F02691747
:1007400010F06FEF690FE62FF0E0E45FFD4F948942
:10075000682F690F60688CE092E00C94970361E069
:100760000E9497038BE39FE10197F1F70895EF92C1
:10077000FF920F931F93CF93DF93EC01623018F039
:100780008F8588608F876B8B1C8A80E48D8B80E1DE
:100790008E8B80E58F8B8C810E94C8008D818F3F6E
:1007A00011F00E94C8008E810E94C8007E0187E07F
:1007B000E80EF11C00E010E08F8584FD03C084E0AA
:1007C00090E002C088E090E00817190744F4F701B0
:1007D00081917F010E94C8000F5F1F4FEDCF8BE317
:1007E0009DE00197F1F760E08C810E94560260E085
:1007F0008E810E9456028D818F3F19F060E00E9429
:1008000056026F8564FD1DC063E0CE010E94110396
:100810000BE416E4C8010197F1F763E0CE010E94F2
:100820001103C8010197F1F763E0CE010E941103A3
:1008300083E592E00197F1F762E0CE010E94110397
:1008400016C06062CE010E9497038BE496E4019784
:10085000F1F76F856062CE010E94970383E592E015
:100860000197F1F76F856062CE010E9497036F8553
:100870006062CE010E94970384E0888B6CE0CE0119
:100880000E949703CE010E94AF0382E0898B66E04D
:10089000CE01DF91CF911F910F91FF90EF900C94BB
:1008A0009703089580E090E0089590936401809309
:1008B0006301F894ECE7F0E080818F7D8083808194
:1008C000806480838081807F8083A0916301B09168
:1008D00064018D919C912081822B8083EAE7F0E076
:1008E000808180688083808180628083ABE7B0E014
:1008F0008C91887F8C9380818760808380818860E1
:100900008083808180648083789408950E945F0D45
:100910006115710579F0FB0101900020E9F731972D
:10092000AF01461B570BDC01ED91FC910280F38176
:10093000E02D099480E090E00895BC018CE092E005
:100940000C9488044F925F926F927F92EF92FF9285
:100950000F931F93CF93DF93CDB7DEB7A1970FB659
:10096000F894DEBF0FBECDBF7C01FA01CB0119A206
:10097000223008F42AE08E010F5D1F4F422E512CC9
:10098000612C712CBF01A30192010E94370DF90166
:10099000CA01015011096A3014F4605D01C0695C3C
:1009A000D8016C93232B242B252B61F7B801C701A9
:1009B0000E948804A1960FB6F894DEBF0FBECDBF8B
:1009C000DF91CF911F910F91FF90EF907F906F90EB
:1009D0005F904F900895CF92DF92EF92FF92CF9366
:1009E000DF936C01990FEE08FF08F7FE1BC06DE264
:1009F0008CE092E00E942402EC0144275527BA01C2
:100A00004C195D096E097F092AE08CE092E00E9492
:100A1000A2048C0F9D1FDF91CF91FF90EF90DF908C
:100A2000CF9008952AE0B701A6018CE092E0DF9113
:100A3000CF91FF90EF90DF90CF900C94A2048F9213
:100A40009F92AF92BF92CF92DF92EF92FF92CF939D
:100A5000DF936B017C019B01AC010E94FD0B88239D
:100A600019F061E271E027C046015701E894B7F838
:100A70002FEF3FEF4FE75FE7C501B4010E94FD0B89
:100A800081110DC02FEF3FEF4FE75FE7C501B401C4
:100A90000E94DC0918161CF465E271E00CC02FEF0F
:100AA0003FEF4FE75FE4C701B6010E943B0B18160A
:100AB00084F469E271E08CE092E0DF91CF91FF90E5
:100AC000EF90DF90CF90BF90AF909F908F900C945D
:100AD00088042FEF3FEF4FE75FECC701B6010E949C
:100AE000DC0987FDE6CF20E030E0A901C701B601AF
:100AF0000E94DC0987FF0BC06DE28CE092E00E944F
:100B00002402EC01F7FAF094F7F8F09402C0C0E088
:100B1000D0E02AE037ED43EA5BE3C701B6010E946B
:100B200070094B015C010E945A0A6B017C010E9412
:100B3000890A9B01AC01C501B4010E946F094B01F8
:100B40005C012AE0B701A6018CE092E00E94A204B9
:100B5000C80FD91F6EE28CE092E00E942402C80FF9
:100B6000D91F20E030E040E251E4C501B4010E9409
:100B7000400B4B015C010E945A0A6B01E12CF12CE5
:100B80002AE0B701A6018CE092E00E94A204C80FFF
:100B9000D91FC701B6010E94890A9B01AC01C5019A
:100BA000B4010E946F0920E030E040E251E40E946D
:100BB000400B0E945A0AAB0160E070E02AE08CE032
:100BC00092E00E94A2048C0F9D1FDF91CF91FF90B5
:100BD000EF90DF90CF90BF90AF909F908F9008954F
:100BE000CF92DF92EF92FF92C0905F01D0906001B0
:100BF0000D2C000CEE08FF08F7FE0EC06DE28FE62C
:100C000091E00E94240244275527BA014C195D093E
:100C10006E097F092AE003C02AE0B701A6018FE62A
:100C200091E00E94A2046DE271E08FE691E00E94E3
:100C3000880460915F0170916001072E000C880BA1
:100C4000990B0E948B0A20E030EC4FE754E40E949D
:100C5000E10920E030E040EA50E40E94400B6B01E3
:100C60007C019B01AC0160E070E080EA90E40E94AE
:100C70006F09A70196010E94E10920E030E04AE7F0
:100C800054E40E94400B2EE93FEE47EB5FEB0E94DD
:100C9000AD0B2AEC32EC42EA5AE40E94400B6B01A5
:100CA0007C0160936B0170936C0180936D01909354
:100CB0006E016091670170916801072E000C880B2E
:100CC000990B0E948B0A9B01AC01C701B6010E94DF
:100CD0003B0B181644F4C701B6010E94530A7093E7
:100CE0006801609367016091690170916A01072E44
:100CF000000C880B990B0E948B0A9B01AC01C70169
:100D0000B6010E94DC0987FF08C0C701B6010E9436
:100D1000530A70936A0160936901FF90EF90DF902E
:100D2000CF9008951F920F920FB60F9211242F9318
:100D30003F934F935F936F937F938F939F93AF9363
:100D4000BF93EF93FF938FE691E00E942401FF9100
:100D5000EF91BF91AF919F918F917F916F915F9133
:100D60004F913F912F910F900FBE0F901F901895AC
:100D70001F920F920FB60F9211242F938F939F9370
:100D8000EF93FF93E0917F01F09180018081E091EA
:100D90008501F091860182FD12C0908180918801C9
:100DA0008F5F8F7320918901821751F0E091880144
:100DB000F0E0E159FE4F958F8093880101C080815A
:100DC000FF91EF919F918F912F910F900FBE0F90F8
:100DD0001F9018951F920F920FB60F9211242F9308
:100DE0003F938F939F93AF93BF93809157019091BF
:100DF0005801A0915901B0915A013091560123E058
:100E0000230F2D3720F40196A11DB11D05C026E842
:100E1000230F0296A11DB11D209356018093570107
:100E200090935801A0935901B0935A0180915201B7
:100E300090915301A0915401B09155010196A11DCB
:100E4000B11D8093520190935301A0935401B0932C
:100E50005501BF91AF919F918F913F912F910F902D
:100E60000FBE0F901F9018951F920F920FB60F9202
:100E700011242F933F934F935F938F939F9386B14A
:100E800090910001892796B19093000182FF12C0D2
:100E9000329B47C021E030E0309351012093500154
:100EA00045E050E050934F0140934E0130934D0187
:100EB00020934C0183FF10C0339942C0109251011E
:100EC0001092500126E030E030934F0120934E0104
:100ED00010924D0110924C0184FF10C0349941C012
:100EE000109251011092500127E030E030934F01F1
:100EF00020934E0110924D0110924C0185FF52C07B
:100F0000359940C0109251011092500188E090E054
:100F100090934F0180934E0110924D0110924C011D
:100F200041C0109251011092500125E030E0309301
:100F30004F0120934E0110924D0110924C01BACFF7
:100F400021E030E0309351012093500146E050E021
:100F500050934F0140934E0130934D0120934C012B
:100F6000BBCF21E030E0309351012093500147E0A6
:100F700050E050934F0140934E0130934D01209328
:100F80004C01BCCF81E090E09093510180935001DF
:100F900028E030E030934F0120934E0190934D01B3
:100FA00080934C019F918F915F914F913F912F9131
:100FB0000F900FBE0F901F9018951F920F920FB6B3
:100FC0000F9211248F939F93EF93FF9381E090E012
:100FD0009093660180936501E0916301F091640153
:100FE000809178009091790093838283FF91EF91B3
:100FF0009F918F910F900FBE0F901F901895EFE665
:10100000F1E01382128288EE93E0A0E0B0E08483E6
:101010009583A683B78387E091E09183808385ECF5
:1010200090E09587848784EC90E09787868780ECB2
:1010300090E0918B808B81EC90E0938B828B82ECA3
:1010400090E0958B848B86EC90E0978B868B118E4D
:10105000128E138E148EECE0F2E01382128289E17C
:1010600091E09183808388E084838FEF858389E09A
:10107000868384E0878385E0808786E0818787E0B8
:1010800082871386148615861686178661E0CF013F
:101090000C94B703789484B5826084BD84B5816074
:1010A00084BD85B5826085BD85B5816085BD809133
:1010B0006E00816080936E001092810080918100AB
:1010C00082608093810080918100816080938100A3
:1010D000809180008160809380008091B100846065
:1010E0008093B1008091B00081608093B0008091C6
:1010F0007A00846080937A0080917A008260809385
:101100007A0080917A00816080937A0080917A00E1
:10111000806880937A001092C10062E08CE092E0D7
:101120000E94B70360E080E00E949A0380E391E0B0
:101130000E949D0480910101909102010E94A202EF
:1011400080915B0190915C0122EC31E0FC013583E0
:101150002483118210820E945504F8943A98429A8E
:101160008091680082608093680080916C00846048
:1011700080936C003B98439A8091680082608093D2
:10118000680080916C00886080936C003C98449A61
:101190008091680082608093680080916C0080611B
:1011A00080936C003C98459A80916800826080939F
:1011B000680080916C00806280936C00789480EF6E
:1011C00095E0909362018093610181E090E09093BB
:1011D0005E0180935D018DE591E00E945504809150
:1011E000650190916601019761F4E0916301F091CE
:1011F00064010480F581E02D09951092660110923A
:10120000650160E080E00E949A0383E391E00E9420
:101210009D0461E080E00E949A0360916B017091EF
:101220006C0180916D0190916E010E941F05C0902C
:101230006B01D0906C01E0906D01F0906E0120E0A8
:1012400030E048EC52E4C701B6010E943B0B87FD39
:101250000DC020E030E04AE754E4C701B6010E9427
:10126000DC0987FF03C086E491E02CC020E030E079
:1012700040E251E4C701B6010E943B0B87FD0DC05F
:1012800020E030E048EC52E4C701B6010E94DC09DE
:1012900087FF03C085E491E015C020E030E0A9019C
:1012A000C701B6010E943B0B87FD0EC020E030E075
:1012B00040E251E4C701B6010E94DC0987FF04C087
:1012C00084E491E00E949D0461E08DE00E949A0315
:1012D00088E491E00E949D040E94B80180CF50589C
:1012E000BB27AA270E9487090C94010B0E94F30ACE
:1012F00038F00E94FA0A20F039F49F3F19F426F4DE
:101300000C94F00A0EF4E095E7FB0C94EA0AE92F3E
:101310000E94120B58F3BA176207730784079507E8
:1013200020F079F4A6F50C94340B0EF4E0950B2E16
:10133000BA2FA02D0B01B90190010C01CA01A00127
:101340001124FF27591B99F0593F50F4503E68F182
:101350001A16F040A22F232F342F4427585FF3CFC3
:10136000469537952795A795F0405395C9F77EF494
:101370001F16BA0B620B730B840BBAF09150A1F0DD
:10138000FF0FBB1F661F771F881FC2F70EC0BA0F63
:10139000621F731F841F48F4879577956795B795EB
:1013A000F7959E3F08F0B0CF9395880F08F09927E6
:1013B000EE0F9795879508950E94C60A08F481E07C
:1013C00008950E94F5090C94010B0E94FA0A58F046
:1013D0000E94F30A40F029F45F3F29F00C94EA0AD6
:1013E00051110C94350B0C94F00A0E94120B68F307
:1013F0009923B1F3552391F3951B550BBB27AA27CE
:1014000062177307840738F09F5F5F4F220F331F07
:10141000441FAA1FA9F335D00E2E3AF0E0E832D0CF
:1014200091505040E695001CCAF72BD0FE2F29D0D2
:10143000660F771F881FBB1F261737074807AB07A4
:10144000B0E809F0BB0B802DBF01FF2793585F4F19
:101450003AF09E3F510578F00C94EA0A0C94350B53
:101460005F3FE4F3983ED4F3869577956795B795FB
:10147000F7959F5FC9F7880F911D9695879597F906
:101480000895E1E0660F771F881FBB1F621773077F
:101490008407BA0720F0621B730B840BBA0BEE1F94
:1014A00088F7E09508950E945A0A6894B1110C9447
:1014B000350B08950E941A0B88F09F5798F0B92FAA
:1014C0009927B751B0F0E1F0660F771F881F991F79
:1014D0001AF0BA95C9F714C0B13091F00E94340BDC
:1014E000B1E008950C94340B672F782F8827B85FEC
:1014F00039F0B93FCCF3869577956795B395D9F7D1
:101500003EF490958095709561957F4F8F4F9F4FDA
:101510000895E89409C097FB3EF4909580957095E6
:1015200061957F4F8F4F9F4F9923A9F0F92F96E92F
:10153000BB279395F695879577956795B795F111A4
:10154000F8CFFAF4BB0F11F460FF1BC06F5F7F4F41
:101550008F4F9F4F16C0882311F096E911C0772353
:1015600021F09EE8872F762F05C0662371F096E85C
:10157000862F70E060E02AF09A95660F771F881F2B
:10158000DAF7880F9695879597F90895990F0008CF
:10159000550FAA0BE0E8FEEF16161706E807F90745
:1015A000C0F012161306E407F50798F0621B730BE0
:1015B000840B950B39F40A2661F0232B242B252B61
:1015C00021F408950A2609F4A140A6958FEF811D04
:1015D000811D089597F99F6780E870E060E00895A5
:1015E0009FEF80EC089500240A941616170618063B
:1015F0000906089500240A94121613061406050617
:101600000895092E0394000C11F4882352F0BB0FA7
:1016100040F4BF2B11F460FF04C06F5F7F4F8F4F0A
:101620009F4F089557FD9058440F551F59F05F3F45
:1016300071F04795880F97FB991F61F09F3F79F0F4
:1016400087950895121613061406551FF2CF469576
:10165000F1DF08C0161617061806991FF1CF8695F8
:101660007105610508940895E894BB2766277727DC
:10167000CB0197F908950E94C60A08F48FEF0895E8
:101680000E94530B0C94010B0E94F30A38F00E9445
:10169000FA0A20F0952311F00C94EA0A0C94F00A4F
:1016A00011240C94350B0E94120B70F3959FC1F31B
:1016B000950F50E0551F629FF001729FBB27F00D00
:1016C000B11D639FAA27F00DB11DAA1F649F662755
:1016D000B00DA11D661F829F2227B00DA11D621FA4
:1016E000739FB00DA11D621F839FA00D611D221F5E
:1016F000749F3327A00D611D231F849F600D211D42
:10170000822F762F6A2F11249F5750409AF0F1F0C4
:1017100088234AF0EE0FFF1FBB1F661F771F881F2D
:1017200091505040A9F79E3F510580F00C94EA0A71
:101730000C94350B5F3FE4F3983ED4F38695779590
:101740006795B795F795E7959F5FC1F7FE2B880FD3
:10175000911D9695879597F90895FA01EE0FFF1F51
:10176000309621053105A1F16115710561F48038CC
:10177000BFE39B0749F168949038810561F0803898
:10178000BFEF9B0741F099234AF5FF3FE105310583
:10179000210519F1E8940894E795D901AA2329F4C1
:1017A000AB2FBE2FF85FD0F310C0FF5F70F4A6958B
:1017B000E0F7F73950F019F0FF3A38F49F779F932C
:1017C0000DD00F9007FC9058089546F00C94F00A45
:1017D00060E070E080E89FE308954FE79F775F93B4
:1017E0004F933F932F930E94AD0C2F913F914F91B8
:1017F0005F910E94400B0C940A0C0E94C60A880B51
:10180000990B089529F416F00C94EA0A0C94340B01
:101810000C94F00A0E941A0BA8F39638A0F707F868
:101820000F92E8942BE33AEA48EB5FE70E94560BED
:101830000F920F920F924DB75EB70F920E94F50C68
:10184000E8E6F0E00E943C0C4F915F91EF91FF9130
:10185000E595EE1FFF1F49F0FE57E0684427EE0FA5
:10186000441FFA95E1F74195550B0E946F0C0F90BC
:1018700007FE0C94630C0895DF93CF931F930F938F
:10188000FF92EF92DF927B018C01689406C0DA2E02
:10189000EF010E94530BFE01E894A591259135912B
:1018A00045915591A6F3EF010E948709FE0197012A
:1018B000A801DA9469F7DF90EF90FF900F911F91E4
:1018C000CF91DF9108959B01AC0160E070E080E86A
:1018D0009FE30C94E1090C94EA0A0C94290D0E94F0
:1018E0001A0BD8F39923C9F3940F511DA3F3915008
:1018F000504094F059F0882332F0660F771F881F0C
:1019000091505040C1F79E3F51052CF7880F911D13
:101910009695879597F908955F3FACF0983E9CF0B7
:10192000BB27869577956795B79508F4B160939531
:10193000C1F7BB0F58F711F460FFE8CF6F5F7F4F1F
:101940008F4F9F4FE3CF0C94350B16F00C94290D5D
:101950000C94F00A68940C94EA0A0E941A0BA8F3FB
:101960009923C1F3AEF3DF93CF931F930F93FF92AD
:10197000C92FDD2788232AF02197660F771F881F3C
:10198000DAF720E030E040E85FEB9FE3883920F0B1
:10199000803E38F021968F770E947009E0E9F0E0F0
:1019A00004C00E947009EDEBF0E00E943C0C8B013A
:1019B000BE01EC01FB2E6F5771097595771F880BDF
:1019C000990B0E948B0A28E132E741E35FE30E9412
:1019D000530BAF2D9801AE01FF900F911F91CF9146
:1019E000DF910E9487090C94010BFA01DC01AA0F18
:1019F000BB1F9B01AC01BF5728F422273327442784
:101A0000507820C0B75190F4AB2F002446953795FD
:101A10002795011CA395D2F3002071F0220F331FEC
:101A2000441FB395DAF30ED00C946F096130710541
:101A3000A0E88A07B94630F49B01AC0166277727F6
:101A400088279078309621F0208331834283538316
:101A500008959F3F31F0915020F4879577956795D1
:101A6000B795880F911D9695879597F90895A1E2EE
:101A70001A2EAA1BBB1BFD010DC0AA1FBB1FEE1F08
:101A8000FF1FA217B307E407F50720F0A21BB30B53
:101A9000E40BF50B661F771F881F991F1A9469F7CF
:101AA00060957095809590959B01AC01BD01CF012B
:101AB0000895EE0FFF1F0590F491E02D099481E049
:0C1AC00090E0F8940C94640DF894FFCFB3
:101ACC00FF50000000000045012B02E7008C0118BC
:101ADC0001F6000A010000000091032B0252045190
:101AEC00046E616E00696E66006F7666000D0A000A
:101AFC004C41004C756D696E6F7369646164206153
:0C1B0C0063742E00202020004C7578002F
:107E0000112484B714BE81FFF0D085E080938100F7
:107E100082E08093C00088E18093C10086E0809377
:107E2000C20080E18093C4008EE0C9D0259A86E02C
:107E300020E33CEF91E0309385002093840096BBD3
:107E4000B09BFECF1D9AA8958150A9F7CC24DD24C4
:107E500088248394B5E0AB2EA1E19A2EF3E0BF2EE7
:107E6000A2D0813461F49FD0082FAFD0023811F036
:107E7000013811F484E001C083E08DD089C08234E0
:107E800011F484E103C0853419F485E0A6D080C0E4
:107E9000853579F488D0E82EFF2485D0082F10E0AE
:107EA000102F00270E291F29000F111F8ED06801E7
:107EB0006FC0863521F484E090D080E0DECF843638
:107EC00009F040C070D06FD0082F6DD080E0C81688
:107ED00080E7D80618F4F601B7BEE895C0E0D1E017
:107EE00062D089930C17E1F7F0E0CF16F0E7DF06D8
:107EF00018F0F601B7BEE89568D007B600FCFDCFD4
:107F0000A601A0E0B1E02C9130E011968C91119780
:107F100090E0982F8827822B932B1296FA010C0160
:107F200087BEE89511244E5F5F4FF1E0A038BF0790
:107F300051F7F601A7BEE89507B600FCFDCF97BE46
:107F4000E89526C08437B1F42ED02DD0F82E2BD052
:107F50003CD0F601EF2C8F010F5F1F4F84911BD097
:107F6000EA94F801C1F70894C11CD11CFA94CF0C13
:107F7000D11C0EC0853739F428D08EE10CD085E9AC
:107F80000AD08FE07ACF813511F488E018D01DD067
:107F900080E101D065CF982F8091C00085FFFCCF94
:107FA0009093C60008958091C00087FFFCCF809118
:107FB000C00084FD01C0A8958091C6000895E0E648
:107FC000F0E098E1908380830895EDDF803219F02E
:107FD00088E0F5DFFFCF84E1DECF1F93182FE3DFCA
:107FE0001150E9F7F2DF1F91089580E0E8DFEE27F6
:047FF000FF270994CA
:027FFE00040479
:0400000300007E007B
:00000001FF
