:100000000C945D000C9485000C9485000C94850084
:100010000C9485000C9485000C9485000C9485004C
:100020000C9485000C9485000C9485000C9485003C
:100030000C9485000C9485000C9485000C9485002C
:100040000C94B8010C9485000C9465040C949704EE
:100050000C9485000C9485000C9485000C9485000C
:100060000C9485000C94850000000008000201003B
:100070000003040700000000000000000102040863
:100080001020408001020408102001020408102002
:10009000040404040404040402020202020203032E
:1000A0000303030300000000250028002B000000CC
:1000B0000000240027002A00C70411241FBECFEF30
:1000C000D8E0DEBFCDBF11E0A0E0B1E0E0EBFBE0A7
:1000D00002C005900D92AA37B107D9F722E0AAE72E
:1000E000B1E001C01D92A232B207E1F710E0CDE508
:1000F000D0E004C02197FE010E94D005CC35D10785
:10010000C9F70E940B050C94D6050C940000CF9300
:10011000DF9300D000D000D0CDB7DEB79A838983BB
:100120004B835C836D837E838B819C81AD81BE819B
:10013000E981FA8126E0AC01BD01CF010E940304F0
:10014000000026960FB6F894DEBF0FBECDBFDF913C
:10015000CF910895CF93DF93CDB7DEB740E855E256
:1001600060E070E085E891E00E94870061E08DE04A
:100170000E94B10260E082E00E94B1020000DF91C3
:10018000CF910895CF93DF9300D0CDB7DEB79A8398
:10019000898389819A818230910549F18330910563
:1001A0002CF4009771F00197B9F08DC0843091055F
:1001B00009F453C084309105ACF1059709F468C087
:1001C00082C062E071E085E891E00E94730560E022
:1001D0008DE00E94EA0277C06EE071E085E891E070
:1001E0000E94730561E08DE00E94EA026CC060ED40
:1001F00077E080E090E00E9425026BE171E085E805
:1002000091E00E94730560E08DE00E94EA0260EDDB
:1002100077E080E090E00E94250261E08DE00E949E
:10022000EA0251C068EE73E080E090E00E9425028F
:1002300067E271E085E891E00E94730560E08DE07F
:100240000E94EA0268EE73E080E090E00E942502DE
:1002500061E08DE00E94EA0236C064EF71E080E068
:1002600090E00E94250261E371E085E891E00E9440
:10027000730560E08DE00E94EA0264EF71E080E0C7
:1002800090E00E94250261E08DE00E94EA021BC01E
:1002900064EF71E080E090E00E9425026BE371E082
:1002A00085E891E00E94730560E08DE00E94EA021B
:1002B00068EE73E080E090E00E94250261E08DE04E
:1002C0000E94EA02000000000F900F90DF91CF9192
:1002D0000895CF93DF93CDB7DEB785E891E00E9414
:1002E0003903909301018093000180910001909166
:1002F000010126E030E0B9010E94860590930101DA
:100300008093000180910001909101010197F1F02B
:1003100080910001909101010297C1F0809100014C
:1003200090910101039791F080910001909101015A
:10033000049761F08091000190910101059731F0DF
:100340008091000190910101892B41F4809100017D
:100350009091010190937B0180937A0180917A01C1
:1003600090917B010E94C2000000DF91CF9108951F
:100370001F920F920FB60F9211242F933F938F93DA
:100380009F93AF93BF9380917D0190917E01A09147
:100390007F01B091800130917C0123E0230F2D3744
:1003A00020F40196A11DB11D05C026E8230F029679
:1003B000A11DB11D20937C0180937D0190937E014E
:1003C000A0937F01B093800180918101909182017F
:1003D000A0918301B09184010196A11DB11D80936C
:1003E000810190938201A0938301B0938401BF9116
:1003F000AF919F918F913F912F910F900FBE0F90D2
:100400001F9018953FB7F8948091810190918201D7
:10041000A0918301B091840126B5A89B05C02F3F10
:1004200019F00196A11DB11D3FBF6627782F892FB6
:100430009A2F620F711D811D911D42E0660F771F7B
:10044000881F991F4A95D1F70895CF92DF92EF92B6
:10045000FF92CF93DF936B017C010E940202EB01BC
:10046000C114D104E104F10489F00E9485050E94C1
:1004700002026C1B7D0B683E734090F381E0C81A4A
:10048000D108E108F108C851DC4FEACFDF91CF91E4
:10049000FF90EF90DF90CF900895789484B58260BC
:1004A00084BD84B5816084BD85B5826085BD85B518
:1004B000816085BDEEE6F0E0808181608083E1E8C7
:1004C000F0E01082808182608083808181608083FF
:1004D000E0E8F0E0808181608083E1EBF0E0808102
:1004E00084608083E0EBF0E0808181608083EAE7D4
:1004F000F0E080818460808380818260808380815D
:10050000816080838081806880831092C10008951B
:10051000833081F028F4813099F08230A1F0089581
:100520008730A9F08830B9F08430D1F48091800010
:100530008F7D03C0809180008F7780938000089525
:1005400084B58F7702C084B58F7D84BD0895809176
:10055000B0008F7703C08091B0008F7D8093B00092
:100560000895CF93DF9390E0FC01E458FF4F24916E
:10057000FC01E057FF4F8491882349F190E0880FF8
:10058000991FFC01E255FF4FA591B4918C559F4FE7
:10059000FC01C591D4919FB7611108C0F8948C916A
:1005A000209582238C93888182230AC0623051F483
:1005B000F8948C91322F309583238C938881822BF1
:1005C000888304C0F8948C91822B8C939FBFDF9119
:1005D000CF9108950F931F93CF93DF931F92CDB7C1
:1005E000DEB7282F30E0F901E859FF4F8491F90177
:1005F000E458FF4F1491F901E057FF4F0491002395
:10060000C9F0882321F069830E9488026981E02F64
:10061000F0E0EE0FFF1FEC55FF4FA591B4919FB78F
:10062000F8948C91611103C01095812301C0812B36
:100630008C939FBF0F90DF91CF911F910F910895E1
:10064000FC01818D228D90E0805C9F4F821B91097F
:100650008F7399270895FC01918D828D981731F041
:10066000828DE80FF11D858D90E008958FEF9FEF4B
:100670000895FC01918D828D981761F0828DDF01C4
:10068000A80FB11D5D968C91928D9F5F9F73928F85
:1006900090E008958FEF9FEF08958DEB94E0892B04
:1006A00049F080E090E0892B29F00E94BD0481117F
:1006B0000C9400000895FC01848DDF01A80FB11D8A
:1006C000A35ABF4F2C91848D90E001968F73992788
:1006D000848FA689B7892C93A089B1898C91806475
:1006E0008C93938D848D981306C00288F389E02D36
:1006F00080818F7D80830895CF93DF93EC01888D77
:100700008823C9F0EA89FB89808185FD05C0A88915
:10071000B9898C9186FD0FC00FB607FCF5CF80819B
:1007200085FFF2CFA889B9898C9185FFEDCFCE01E5
:100730000E945B03E7CFDF91CF910895CF92DF92C4
:10074000FF920F931F93CF93DF931F92CDB7DEB726
:100750006C01DC015B969C915B975C968C915C973D
:10076000981307C05096ED91FC915197808185FDBB
:1007700032C0F601038D10E00F5F1F4F0F7311277A
:10078000F02EF601848DF81211C00FB607FCF9CFD8
:10079000D6015096ED91FC915197808185FFF1CF64
:1007A000C60169830E945B036981EBCF838DE80FEB
:1007B000F11DE35AFF4F6083D6015B960C935B9764
:1007C0005296ED91FC91539780818062808381E005
:1007D00058968C930DC0D6015696ED91FC91579783
:1007E00060835096ED91FC91519780818064808365
:1007F00081E090E00F90DF91CF911F910F91FF90DA
:10080000DF90CF900895BF92CF92DF92EF92FF9248
:10081000CF93DF93EC016A017B01B22EE889F9895D
:1008200082E08083411581EE580761057105A1F0D2
:1008300060E079E08DE390E0A70196010E949A05BF
:10084000215031094109510956954795379527950A
:10085000211580E1380798F0E889F989108260E86D
:1008600074E88EE190E0A70196010E949A0521505C
:100870003109410951095695479537952795EC85DA
:10088000FD853083EE85FF852083188EEC89FD89F8
:10089000B082EA89FB89808180618083EA89FB8953
:1008A000808188608083EA89FB8980818068808379
:1008B000EA89FB8980818F7D8083DF91CF91FF90D2
:1008C000EF90DF90CF90BF9008951F920F920FB6D8
:1008D0000F9211242F938F939F93EF93FF93E091A7
:1008E0009501F09196018081E0919B01F0919C012E
:1008F00082FD12C0908180919E018F5F8F73209145
:100900009F01821751F0E0919E01F0E0EB57FE4FFE
:10091000958F80939E0101C08081FF91EF919F91FF
:100920008F912F910F900FBE0F901F9018951F92CF
:100930000F920FB60F9211242F933F934F935F9313
:100940006F937F938F939F93AF93BF93EF93FF9397
:1009500085E891E00E945B03FF91EF91BF91AF9119
:100960009F918F917F916F915F914F913F912F91C7
:100970000F900FBE0F901F90189585E891E00E9490
:10098000200321E0892B09F420E0822F08951092A2
:1009900088011092870188EE93E0A0E0B0E0809398
:1009A000890190938A01A0938B01B0938C018DE60D
:1009B00091E0909386018093850185EC90E090937F
:1009C00092018093910184EC90E090939401809344
:1009D000930180EC90E0909396018093950181ECD7
:1009E00090E0909398018093970182EC90E090932F
:1009F0009A018093990186EC90E090939C018093FA
:100A00009B0110929E0110929F011092A0011092E2
:100A1000A101089508950E944D020E940A050E94B6
:100A2000AA00CDE4D3E00E9469012097E1F30E947F
:100A30004D03F9CFCF92DF92EF92FF920F931F9366
:100A4000CF93DF936C017A01EB01E60EF71E00E015
:100A500010E0CE15DF0561F06991D601ED91FC91B2
:100A60000190F081E02DC6010995080F191FF1CF03
:100A7000C801DF91CF911F910F91FF90EF90DF9010
:100A8000CF9008956115710581F0DB010D90002074
:100A9000E9F7AD0141505109461B570BDC01ED91BF
:100AA000FC910280F381E02D099480E090E00895AC
:100AB000DC01ED91FC910190F081E02D09940F9300
:100AC0001F93CF93DF93EC016DE00E9458058C01DA
:100AD0006AE0CE010E945805800F911FDF91CF91EF
:100AE0001F910F9108950F931F93CF93DF93EC0104
:100AF0000E9442058C01CE010E945F05800F911F6C
:100B0000DF91CF911F910F910895089597FB072EC4
:100B100016F4009407D077FD09D00E94BC0507FCAD
:100B200005D03EF4909581959F4F089570956195FD
:100B30007F4F0895A1E21A2EAA1BBB1BFD010DC019
:100B4000AA1FBB1FEE1FFF1FA217B307E407F5077D
:100B500020F0A21BB30BE40BF50B661F771F881F59
:100B6000991F1A9469F760957095809590959B01EF
:100B7000AC01BD01CF010895AA1BBB1B51E107C009
:100B8000AA1FBB1FA617B70710F0A61BB70B881F1D
:100B9000991F5A95A9F780959095BC01CD010895AC
:100BA000EE0FFF1F0590F491E02D0994F894FFCF0C
:100BB00001004C6564206170616761646F004C6581
:100BC00064207072656E6469646F004C65642061B6
:100BD00020302C35487A004C656420612031487AF9
:100BE000004C656420612032487A004C65642075B1
:100BF0006E20736567756E646F20656E63656E64E5
:100C000069646F207920756E20736567756E646FF7
:100C1000206170616761646F00000000009E031A2C
:0A0C200005200339032B037C0300B9
:00000001FF
