S02200004C61626F7261746F72696F20312D2041637469766964616420332E737265630A
S11300000C9434000C9451000C9451000C94510045
S11300100C9451000C9451000C9451000C94510018
S11300200C9451000C9451000C9451000C94510008
S11300300C9451000C9451000C9451000C945100F8
S11300400C9451000C9451000C9451000C945100E8
S11300500C9451000C9451000C9451000C945100D8
S11300600C9451000C94510011241FBECFEFD8E022
S1130070DEBFCDBF11E0A0E0B1E0E6EFF1E002C0E9
S113008005900D92A230B107D9F721E0A2E0B1E0CA
S113009001C01D92A630B207E1F70E9453000C94F0
S11300A0F9000C9400005298259A21E030E089B1BF
S11300B0847090E0909305018093040140910201C3
S11300C0509103018417950709F440C04FEF80E76E
S11300D092E0415080409040E1F700C0000089B1B7
S11300E0847090E090930501809304014091020193
S11300F05091030184179507D1F2892BF1F4809173
S11301000001909101018530910569F024F481305A
S1130110910574F412C0069781F430930101209381
S113012000012D9A0AC02D9880910001909101013F
S113013001969093010180930001809104019091B4
S113014005019093030180930201B1CF80910001D6
S1130150909101018330910521F1ACF4029709F0EB
S1130160A6CF4FEF87EA91E6415080409040E1F7F7
S113017000C000002D984FEF87EA91E6415080407F
S11301809040E1F732C08430910599F0059709F069
S11301908ECF4FEF89E698E1415080409040E1F7DF
S11301A01AC04FEF83ED90E3415080409040E1F757
S11301B012C04FEF89E698E1415080409040E1F74A
S11301C000C000002D984FEF89E698E1415080402F
S11301D09040E1F70AC000C000002D984FEF83ED76
S11301E090E3415080409040E1F700C000002D9A18
S10901F05ECFF894FFCF7E
S10501F60600FD
S9030000FC
